{
  "contractName": "API",
  "abi": [
    {
      "constant": true,
      "inputs": [],
      "name": "responseString",
      "outputs": [
        {
          "name": "",
          "type": "string"
        }
      ],
      "payable": false,
      "stateMutability": "pure",
      "type": "function"
    },
    {
      "constant": true,
      "inputs": [],
      "name": "responseInteger",
      "outputs": [
        {
          "name": "",
          "type": "int256"
        }
      ],
      "payable": false,
      "stateMutability": "pure",
      "type": "function"
    },
    {
      "constant": true,
      "inputs": [
        {
          "name": "value",
          "type": "string"
        }
      ],
      "name": "requestString",
      "outputs": [
        {
          "name": "",
          "type": "string"
        }
      ],
      "payable": false,
      "stateMutability": "pure",
      "type": "function"
    },
    {
      "constant": true,
      "inputs": [
        {
          "name": "value",
          "type": "uint256"
        }
      ],
      "name": "requestInteger",
      "outputs": [
        {
          "name": "",
          "type": "uint256"
        }
      ],
      "payable": false,
      "stateMutability": "pure",
      "type": "function"
    },
    {
      "constant": false,
      "inputs": [
        {
          "name": "name",
          "type": "string"
        }
      ],
      "name": "addName",
      "outputs": [
        {
          "name": "",
          "type": "bool"
        }
      ],
      "payable": false,
      "stateMutability": "nonpayable",
      "type": "function"
    },
    {
      "constant": false,
      "inputs": [],
      "name": "getNames",
      "outputs": [
        {
          "name": "",
          "type": "string[]"
        }
      ],
      "payable": false,
      "stateMutability": "nonpayable",
      "type": "function"
    },
    {
      "constant": true,
      "inputs": [],
      "name": "getUserCount",
      "outputs": [
        {
          "name": "",
          "type": "uint256"
        }
      ],
      "payable": false,
      "stateMutability": "view",
      "type": "function"
    },
    {
      "constant": false,
      "inputs": [
        {
          "name": "name",
          "type": "string"
        }
      ],
      "name": "addUser",
      "outputs": [],
      "payable": false,
      "stateMutability": "nonpayable",
      "type": "function"
    },
    {
      "constant": false,
      "inputs": [
        {
          "name": "sender",
          "type": "address"
        }
      ],
      "name": "getUser",
      "outputs": [
        {
          "name": "",
          "type": "string"
        },
        {
          "name": "",
          "type": "uint256"
        }
      ],
      "payable": false,
      "stateMutability": "nonpayable",
      "type": "function"
    },
    {
      "constant": false,
      "inputs": [],
      "name": "test",
      "outputs": [],
      "payable": false,
      "stateMutability": "nonpayable",
      "type": "function"
    }
  ],
  "bytecode": "0x608060405234801561001057600080fd5b50610ce9806100206000396000f3006080604052600436106100a4576000357c0100000000000000000000000000000000000000000000000000000000900463ffffffff16806311456b47146100a957806318b8275a146100e65780632a9896431461010f57806353c2a92f1461014c578063637a1395146101775780636c784058146101a25780636f77926b146101df578063b5cb15f71461021d578063cd838f0f14610248578063f8a8fd6d14610273575b600080fd5b3480156100b557600080fd5b506100d060048036036100cb9190810190610948565b61028a565b6040516100dd9190610adb565b60405180910390f35b3480156100f257600080fd5b5061010d60048036036101089190810190610948565b6102d3565b005b34801561011b57600080fd5b5061013660048036036101319190810190610948565b610427565b6040516101439190610b11565b60405180910390f35b34801561015857600080fd5b50610161610431565b60405161016e9190610af6565b60405180910390f35b34801561018357600080fd5b5061018c61043a565b6040516101999190610b11565b60405180910390f35b3480156101ae57600080fd5b506101c960048036036101c49190810190610989565b610477565b6040516101d69190610b63565b60405180910390f35b3480156101eb57600080fd5b506102066004803603610201919081019061091f565b610481565b604051610214929190610b33565b60405180910390f35b34801561022957600080fd5b50610232610576565b60405161023f9190610b63565b60405180910390f35b34801561025457600080fd5b5061025d610583565b60405161026a9190610ab9565b60405180910390f35b34801561027f57600080fd5b5061028861066c565b005b6000808290806001815401808255809150509060018203906000526020600020016000909192909190915090805190602001906102c8929190610775565b505060019050919050565b600080600160003373ffffffffffffffffffffffffffffffffffffffff1673ffffffffffffffffffffffffffffffffffffffff16815260200190815260200160002060010154111561032457610423565b60023390806001815401808255809150509060018203906000526020600020016000909192909190916101000a81548173ffffffffffffffffffffffffffffffffffffffff021916908373ffffffffffffffffffffffffffffffffffffffff16021790555050818160000190805190602001906103a2929190610775565b506064816001018190555080600160003373ffffffffffffffffffffffffffffffffffffffff1673ffffffffffffffffffffffffffffffffffffffff168152602001908152602001600020600082018160000190805460018160011615610100020316600290046104149291906107f5565b50600182015481600101559050505b5050565b6060819050919050565b60006007905090565b60606040805190810160405280600c81526020017febacb8ec9e90ec97b42121210000000000000000000000000000000000000000815250905090565b6000819050919050565b6060600080600160008573ffffffffffffffffffffffffffffffffffffffff1673ffffffffffffffffffffffffffffffffffffffff1681526020019081526020016000209050806000018160010154818054600181600116156101000203166002900480601f0160208091040260200160405190810160405280929190818152602001828054600181600116156101000203166002900480156105655780601f1061053a57610100808354040283529160200191610565565b820191906000526020600020905b81548152906001019060200180831161054857829003601f168201915b505050505091509250925050915091565b6000600280549050905090565b60606000805480602002602001604051908101604052809291908181526020016000905b82821015610663578382906000526020600020018054600181600116156101000203166002900480601f01602080910402602001604051908101604052809291908181526020018280546001816001161561010002031660029004801561064f5780601f106106245761010080835404028352916020019161064f565b820191906000526020600020905b81548152906001019060200180831161063257829003601f168201915b5050505050815260200190600101906105a7565b50505050905090565b60006040805190810160405280600181526020017f61000000000000000000000000000000000000000000000000000000000000008152508160000190805190602001906106bb929190610775565b50601e8160010181905550600381908060018154018082558091505090600182039060005260206000209060020201600090919290919091506000820181600001908054600181600116156101000203166002900461071b9291906107f5565b50600182015481600101555050508060046000808152602001908152602001600020600082018160000190805460018160011615610100020316600290046107649291906107f5565b506001820154816001015590505050565b828054600181600116156101000203166002900490600052602060002090601f016020900481019282601f106107b657805160ff19168380011785556107e4565b828001600101855582156107e4579182015b828111156107e35782518255916020019190600101906107c8565b5b5090506107f1919061087c565b5090565b828054600181600116156101000203166002900490600052602060002090601f016020900481019282601f1061082e578054855561086b565b8280016001018555821561086b57600052602060002091601f016020900482015b8281111561086a57825482559160010191906001019061084f565b5b509050610878919061087c565b5090565b61089e91905b8082111561089a576000816000905550600101610882565b5090565b90565b60006108ad8235610c32565b905092915050565b600082601f83011215156108c857600080fd5b81356108db6108d682610bab565b610b7e565b915080825260208301602083018583830111156108f757600080fd5b610902838284610c5c565b50505092915050565b60006109178235610c52565b905092915050565b60006020828403121561093157600080fd5b600061093f848285016108a1565b91505092915050565b60006020828403121561095a57600080fd5b600082013567ffffffffffffffff81111561097457600080fd5b610980848285016108b5565b91505092915050565b60006020828403121561099b57600080fd5b60006109a98482850161090b565b91505092915050565b60006109bd82610be4565b808452602084019350836020820285016109d685610bd7565b60005b84811015610a0f5783830388526109f1838351610a74565b92506109fc82610c05565b91506020880197506001810190506109d9565b508196508694505050505092915050565b610a2981610c12565b82525050565b610a3881610c1e565b82525050565b6000610a4982610bfa565b808452610a5d816020860160208601610c6b565b610a6681610c9e565b602085010191505092915050565b6000610a7f82610bef565b808452610a93816020860160208601610c6b565b610a9c81610c9e565b602085010191505092915050565b610ab381610c28565b82525050565b60006020820190508181036000830152610ad381846109b2565b905092915050565b6000602082019050610af06000830184610a20565b92915050565b6000602082019050610b0b6000830184610a2f565b92915050565b60006020820190508181036000830152610b2b8184610a3e565b905092915050565b60006040820190508181036000830152610b4d8185610a3e565b9050610b5c6020830184610aaa565b9392505050565b6000602082019050610b786000830184610aaa565b92915050565b6000604051905081810181811067ffffffffffffffff82111715610ba157600080fd5b8060405250919050565b600067ffffffffffffffff821115610bc257600080fd5b601f19601f8301169050602081019050919050565b6000602082019050919050565b600081519050919050565b600081519050919050565b600081519050919050565b6000602082019050919050565b60008115159050919050565b6000819050919050565b6000819050919050565b600073ffffffffffffffffffffffffffffffffffffffff82169050919050565b6000819050919050565b82818337600083830152505050565b60005b83811015610c89578082015181840152602081019050610c6e565b83811115610c98576000848401525b50505050565b6000601f19601f83011690509190505600a265627a7a72305820728d52e615fec6d4c9b7b02944a8babbdfcfa1e97b3b4ee587be395b19eba9b56c6578706572696d656e74616cf50037",
  "source": "pragma solidity ^0.4.24;\r\npragma experimental ABIEncoderV2;\r\n\r\ncontract API {\r\n    // 문자열을 반환\r\n    function responseString() public pure returns (string) {\r\n        return '문자열!!!';\r\n    }\r\n    function responseInteger() public pure returns (int) {\r\n        return 7;\r\n    }\r\n    function requestString(string value) public pure returns (string) {\r\n        return value;\r\n    }\r\n    function requestInteger(uint value) public pure returns (uint) {\r\n        return value;\r\n    }\r\n    string[] names;\r\n    function addName(string name) public returns(bool) {\r\n        names.push(name);\r\n        return true;\r\n    }\r\n    function getNames() public returns (string[]) {\r\n        return names;\r\n    }\r\n\r\n    struct User {\r\n        string name;\r\n        uint id;\r\n    }\r\n    mapping(address => User) user_map;\r\n    address[] users;\r\n\r\n    function getUserCount() public view returns (uint) {\r\n        return users.length;\r\n    }\r\n    function addUser(string name) public {\r\n        // require (user_map[msg.sender].id > 0)\r\n        if(user_map[msg.sender].id > 0) {\r\n            return;\r\n        }\r\n        users.push(msg.sender);\r\n        User u;\r\n        u.name = name;\r\n        u.id = 100;\r\n        user_map[msg.sender] = u;\r\n    }\r\n    function getUser(address sender) public returns(string, uint){\r\n        //msg.sender\r\n        User u =user_map[sender];\r\n        return(u.name, u.id);\r\n    }\r\n\r\n    // 구조체\r\n    struct Person {\r\n        string name;\r\n        uint age;\r\n    }   // array 또는 map 자료와 같이 사용, 일반적\r\n    Person[] persons; // 배열\r\n    mapping(uint => Person) person_map;\r\n    function test() public {\r\n        Person p;\r\n        p.name = 'a';\r\n        p.age = 30;\r\n        persons.push(p);\r\n        person_map[0] = p;\r\n        // person_map.put(key, value);\r\n    }\r\n}",
  "sourcePath": "C:\\dev\\klaytn\\sample\\contracts\\API.sol",
  "compiler": {
    "name": "solc",
    "version": "0.4.25+commit.59dbf8f1.Emscripten.clang"
  },
  "schemaVersion": "2.0.2",
  "updatedAt": "2019-08-07T01:52:44.429Z"
}